:020000040000FA
:0400000080313C28E7
:100008007E1480314E018C1E15288C12D0304B0185
:100018009D009C0132304001C2000030C300C8017D
:10002800C80A4E010C1E3A280C127E01CA1D3A2835
:10003800CA114B019E1340018D192B284B011D0835
:100048004001C5004B011C084001C40035284B0184
:100058001D084001C7004B011C084001C600CB0128
:10006800CB0AD0304B019D009C019E177E100900E1
:1000780080313E28203084000030850030308531C2
:100088007A257E1040018431702C40015708803950
:10009800D8005808E1005735D8005808E800D61BA2
:1000A8006814680803196628680A031D6328003065
:1000B800D7000030D6000030D5000030D400D61765
:1000C800D7016E280030D7000030D6000030D500A8
:1000D8000030D40053088039D8005808E106533559
:1000E800D8005808E900D21B6914690803198A283E
:1000F800690A031D87280030D3000030D200003081
:10010800D1000030D000D217D30192280030D3009C
:100118000030D2000030D1000030D0005308520423
:1001280051045004031DB1280030D7000030D60018
:100138000030D5000030D4008030D6047F30D7049A
:100148006108D8005808D7045708D3005608D200C9
:100158005508D1005408D00008006808031DC528B8
:100168000030D7000030D6000030D5000030D40071
:100178005708D3005608D2005508D1005408D000BB
:1001880008006908D800D901D809D909D80A03197B
:10019800D90A68085807DA0059080318590ADB0011
:1001A8005A087F3EE20000305B3DE3005708E0005C
:1001B8005608DF005508DE005408DD000030D7007F
:1001C8000030D6000030D5000030D4000030E70001
:1001D8000030E6000030E5000030E400E9011A30A4
:1001E800690203182F296908031911290130DD351F
:1001F800DE0DDF0DE00D890BFB280130D435D50D60
:10020800D60DD70D890B0229E71B54140130E435AC
:10021800E50DE60DE70D890B0B2953086002031D58
:100228001F2952085F02031D1F2951085E02031D82
:100238001F2950085D02031C2A2967175008DD0290
:100248005108DE3B5208DF3B5308E03B0130D80041
:100258005808E907F32860085F045E045D04031D7D
:100268006414D61B4C290130D435D50DD60DD70DC5
:10027800890B3829E71B54140130E435E50DE60DE8
:10028800E70D890B4129FF30E207FF30E33D3529AF
:10029800E901E71F6529FF306405D800FF306505CF
:1002A800D900FF306605DA007F306705DB005B08A0
:1002B8005A0459045804031D6329541C6529E9018B
:1002C800E90A690803198E290130D4070030D53DA1
:1002D8000030D63D0030D73D571C8E295408D80031
:1002E8005508D9005608DA005708DB000130DC0051
:1002F800DB37DA0CD90CD80CDC0B7C295B08D7006F
:100308005A08D6005908D5005808D4000130E20729
:100318000030E33D6308803AD80080305802031D5E
:100328009729FF306202031CA629FF304001E20032
:100338000030E3000030D7000030D6000030D50090
:100348000030D40040016308803AD8008030580259
:10035800031DB029013062020318BE294001E201E1
:10036800E3010030D7000030D6000030D50000305F
:10037800D400E10140016208D8005808E800681C70
:10038800C729D617CB297F30D8005808D605683634
:10039800D8005808D7006108D8005808D70457086B
:1003A800D3005608D2005508D1005408D0000800E0
:1003B800003070054001D00000307105D100803058
:1003C8007205D2007F307305D300530852045104DC
:1003D8005004031DF7290030F3000030F20000300C
:1003E800F1000030F00000307405D00000307505D1
:1003F800D10080307605D2007F307705D3005308CE
:10040800520451045004031D112A0030F700003033
:10041800F6000030F5000030F400F31F3A2A0030EF
:10042800D0000030D1000030D2008030D3007009F5
:10043800D4007109D5007209D6007309D700D40A0F
:100448000319D50A0319D60A0319D70A5408D0077D
:100458005508D13D5608D23D5708D33D5308F300FF
:100468005208F2005108F1005008F000F71F632A03
:100478000030D0000030D1000030D2008030D300EE
:100488007409D4007509D5007609D6007709D70014
:10049800D40A0319D50A0319D60A0319D70A540826
:1004A800D0075508D13D5608D23D5708D33D5308CB
:1004B800F7005208F6005108F5005008F4008030A3
:1004C800F3068030F70677087302031D08007608E4
:1004D8007202031D080075087102031D08007408E4
:1004E800700208004E010F1D0800FA010F114301A8
:1004F80016084001D0005008FA0043011A16991A4C
:10050800912AFE3017054001D00050087A06031DD5
:10051800912AC901C90ACA019C2A4301991A9C2A2D
:10052800FE3017054001D00050087A06031DC901A6
:10053800400149080319B02A4301991EB02A7A08D4
:100548004001D0004A08203E8600870150088100FB
:100558000130D0005008CA074001490803190800B3
:100568004301991E0800191E08004001C901053001
:100578004A06031D080031302006031D0800480301
:10058800031D08002408D000D101D201D30123089B
:10059800D400D501D601D7010830D435D50DD60DF4
:1005A800D70D890BD12A2208D800D901DA01DB013D
:1005B8001030D835D90DDA0DDB0D890BDD2A21086D
:1005C800DC00DD01DE01DF011830DC35DD0DDE0D7C
:1005D800DF0D890BE92A5C08D8045D08D9045E0898
:1005E800DA045F08DB045808D4045908D5045A080B
:1005F800D6045B08D70450085404F2005108550487
:10060800F30052085604F40053085704F5008431E7
:100618002B240800F8007808031DF31F232B70090A
:10062800FA007109FB007209FC007309FD00FA0A5F
:100638000319FB0A0319FC0A0319FD0A2B2B73087B
:10064800FD007208FC007108FB007008FA007308CE
:10065800720471047004031D3A2B0030F30000305B
:10066800F2000030F1000030F00008009630F4008D
:100678007408F900FE307D050319612B0130F40080
:100688007408F9070130FD36FC0CFB0CFA0C890BD9
:10069800472B3E2B0130F4007408F9070130FA07A4
:1006A8000030FB3D0030FC3D0030FD3D0130FD36A3
:1006B800FC0CFB0CFA0C890B5B2BFF307D05031936
:1006C8006F2B4E2B0130F9020130FA35FB0DFC0D72
:1006D800FD0D890B692BFC1B752B02307902031861
:1006E800662B79187F2BFF30FA05FF30FB057F302A
:1006F800FC05FF30FD050310F90C7908F400F5013D
:10070800F601F7011830F435F50DF60DF70D890BE4
:10071800872B7408FA047508FB047608FC0477082C
:10072800FD047808031DF31F9A2BFD177D08F300BD
:100738007C08F2007B08F1007A08F000080040010C
:100748004B03031D08004408003EC0003030453DFF
:10075800C1004608003EBE003030473DBF003E089D
:100768004007BC003F08413DBD00CB014008B40034
:100778004108B500B601B7013E08B0003F08B10016
:10078800B201B3013308F3003208F2003108F10076
:100798003008F000003083310E23833173084001A4
:1007A800D3007208D2007108D1007008D000370851
:1007B800F3003608F2003508F1003408F000003084
:1007C80083310E23833173084001D7007208D600A5
:1007D8007108D5007008D400803149208331400168
:1007E8005308BB005208BA005108B9005008B800B5
:1007F8006D08F3006C08F2006B08F1006A08F0005D
:100808003B08F7003A08F6003908F5003808F40004
:100818008131DC218331031C262C00304001430246
:1008280032300319420203181F2C0130C20700306E
:10083800C33DC80108003230C2000030C300C801FF
:10084800C80A08004001C201C301C8010800853177
:100858002B2584318F3050018D0507308D040C080D
:10086800C13914388C00003085314325843150015A
:100878000C140030F9000030F8000030F7000030A8
:10088800F6004F2C63000130F6070030F73D0030CA
:10089800F83D0030F93D75087902031D5D2C740898
:1008A8007802031D5D2C73087702031D5D2C720806
:1008B80076020318672C40018E1E642C0E1F672CCD
:1008C8008E1A0E1F462C50010C100130853143251D
:1008D80084318531102508003D304001ED00593044
:1008E800EC001630EB008730EA0018129812181145
:1008F800981112129212121192119416141794143C
:10090800C8018531102584310530510193008B13BE
:1009180055307D018F00AA308F008F0117307E017E
:10092800990018309A0055307D018F00AA308F0049
:1009380001308F000B178B1785312B2584318531BA
:10094800102584318231762284318331A323843186
:1009580085316B258431A62C400193157E01C30196
:10096800C815C9154E010C1216164001C601C7015B
:10097800C401C5014B019E131E161F081F394038BC
:100988009F001F08F03902389F00D0309D009C015D
:100998004E018C1296164B019E174001C201C301ED
:1009A800CB0108004001EE01EE0AF1010A307102A4
:1009B8000318F02C0310181D0314031CE62C400127
:1009C8001815E82C400118110130F0007008F107E3
:1009D8000A307102031CDF2C18168431F424080035
:1009E800400193141315430199131A08F0390E386E
:1009F8009A001B109C101C109C121C171C161A160F
:100A08004E010F11243043019700FF3098007E01FA
:100A1800C30143019A1608007E304F019600FE304C
:100A28009700FF309800FF309900EF309A00FF30B0
:100A38009B00053051019300500192148431D62453
:100A480085318431F42485318431B024080085311E
:100A580080258531853158257F304F019600FF303C
:100A68009700FF309800FF309900FF309A00FF3060
:100A78009B00023051019300500192140800F000CD
:100A88007008031D4D2D51010D088F3950388D0008
:100A980008007003031D080051010D088F396038E4
:100AA8008D0005309300080040011811181298169F
:100AB800EE01F101710A0319682D0130F000700888
:100AC800F107710A031D612D4001981208004001C9
:100AD8006E03031D08000310181D0314031C772D53
:100AE8004001181508004001181108006400800131
:100AF8000131890B7B2D00344E01161296124B01E1
:040B08009E13080030
:020000040001F9
:0A000E00EC3FFF37BF3FFF3FFF3F0D
:00000001FF
